:1000000000000320D101000011150000C9140000F8
:10001000C9140000C9140000C9140000C91400006C
:10002000C9140000C9140000C91400001115000013
:1000300011150000C9140000391D00003D1E00000C
:100040001115000011150000111500001115000018
:100050001115000011150000111500001115000008
:1000600011150000111500001115000011150000F8
:1000700011150000111500001115000011150000E8
:1000800011150000111500001115000011150000D8
:1000900011150000111500001115000011150000C8
:1000A00011150000111500001115000011150000B8
:1000B000111500001115000011150000B115000008
:1000C00011150000DD1600001115000009180000D0
:1000D0001115000001190000111500001115000094
:1000E0001115000011150000111500001115000078
:1000F0001115000011150000111500001115000068
:100100001115000011150000111500001115000057
:1001100011150000F5070000111500001115000071
:100120001115000011150000111500001115000037
:100130001115000011150000111500001115000027
:100140001115000011150000F9190000111500002B
:100150001115000011150000111500001115000007
:1001600011150000111500001115000011150000F7
:1001700011150000111500001115000011150000E7
:1001800011150000111500001115000011150000D7
:100190001115000011150000F11A000011150000E2
:1001A00011150000111500001115000011150000B7
:1001B00011150000111500001115000011150000A7
:1001C0001115000011150000111500001115000097
:1001D0005C4B4CF2205210B51A804DF628121A8052
:1001E00000BF00BF01F098F9574B4FF030621A6022
:1001F000564A9A60564ADA60564B4FF470021A60BB
:10020000554B564A1A60564A136813F4807304D14A
:1002100054490B604FF4A8531360534B1A781107DD
:1002200003D51A7842F008021A70504B5049AA229E
:100230001A70504A504B8B4204D252F8040F43F8C4
:10024000040BF8E74D4B4E4900228B4202D243F893
:10025000042BFAE74B494C4A002352F8230041F89B
:1002600023000133742BF8D1484B494A802103F80D
:10027000011B9342FBD1474B424A1A60464B8A22EC
:100280001A70A3F5805324225A70A0221A709A790A
:100290009207FCD59A79D406FCD4404A937903F0AE
:1002A0000C03082BFAD13E4B60221A7002331A78E5
:1002B000802AFCD1394B01221A715D225A719A7938
:1002C0009006FCD59979354A4906FBD5354B364918
:1002D00019600021596020231370937903F00C03F7
:1002E0000C2BFAD1314B324A1A60324B324A1A6027
:1002F00000225A60072243F8042C304AC3F80C2D20
:1003000062B600F027F9174B1B68DA0705D52C48B1
:1003100000F0BCF82B4B2C4A1A602C4B1B785B0668
:1003200009D5284C284B22689A4204D1244800F071
:10033000ADF80023236001F0BDFD01F0F3F800F0FB
:10034000E9FFFEE70E20054030800440823F0400B4
:100350000100002B88ED00E0002008E0030000858C
:1003600010D0034014D0034002D0074000E0074003
:10037000080CFF1F702000003007FF1F080CFF1F34
:100380005410FF1F0002FF1F0000000000E400E007
:1003900064E400E008ED00E0005006400040064044
:1003A00001E007404480044000000602048004404D
:1003B000C010070014E000E01FBF02000000202072
:1003C000C34E705A1CE00340A5C3945A00F0074086
:1003D000FFFFFFFFFFFFFFFFFFFFFFFFFFFFFFFF2D
:1003E000FFFFFFFFFFFFFFFFFFFFFFFFFFFFFFFF1D
:1003F000FFFFFFFFFFFFFFFFFFFFFFFFFFFFFFFF0D
:10040000FFFFFFFFFFFFFFFFFFFFFFFFDEF9FFFF23
:1004100010B5054C237833B9044B13B10448AFF33E
:1004200000800123237010BD080CFF1F0000000096
:1004300074200000084B10B51BB108490848AFF301
:1004400000800848036803B910BD074B002BFBD0A0
:10045000BDE81040184700BF000000000C0CFF1F53
:1004600074200000080CFF1F00000000704700BF50
:1004700008B50C21044800F0A5FE4FF4FA60BDE871
:10048000084000F015B800BFF01F000030B4054B65
:10049000054D064C002210211A602A602060196068
:1004A00030BC704714D0034004D0034000D0034058
:1004B0002DE9F843054672B6224F234B234A1B68A9
:1004C0003C68126862B6520102D5322B88BF0134F3
:1004D000B5B3C3F52F3303F21F331D4EDFF8689019
:1004E000DFF868809B084FF47A72A6FB031302FBC7
:1004F00004F404EB930472B6D9F800103A68D8F803
:1005000000E062B6C1F52F3303F21F339B08A6FB50
:1005100003031EF0806FC4EB93034FF47A7002D094
:10052000322988BF013200FB0233B3F57A7F04D34E
:10053000013D05D004F57A74DDE700F0F3FEDAE75B
:10054000BDE8F883240CFF1F18E000E004ED00E094
:10055000176CC116F8B54E4B4E48DFF85CC14E4CD7
:100560004E49DFF858E14E4E4E4D4F4F4FF000626E
:100570001A604FF080521A604FF000521A604FF02C
:1005800080421A604FF000421A6000220260282365
:100590004EF6FF70CCF80000CEF8003023600EF568
:1005A000012E0B6033602B6006F500263B6005F5DD
:1005B0000025A36207F500278B6204F5012401F5ED
:1005C000012106F6E87605F6E87507F57F67103134
:1005D0000EF1100E203433602B60CEF800303B60FB
:1005E0000B602360314CBB618B6109212160A7F551
:1005F000002704F58054203F08343A602060BB6037
:10060000E36047F8041C04F5FD2407F5FE270437D2
:1006100004F2FC7422603860A360FB6044F8041CA0
:10062000083404F6FC74C7F8FC2F2060A4F5E1241C
:10063000A4F2DC7433602B60C7F8F81F21681C48F3
:1006400041F40071216001681A4C0EF57F4E0EF1E5
:10065000E80E07F5883706F5803605F5803541F058
:1006600000710160CEF8002047F6FF710822396062
:1006700033602B60226000F0B7FE3220FFF718FFD6
:1006800000F0E4FC4FF4AF70BDE8F840FFF710BF96
:1006900004E100E004800340148003401C80034018
:1006A000248003402C8003403480034000800340BA
:1006B0000480044000900C40088003400C800340FC
:1006C000013803280BD872B6074B53F8203043B1DA
:1006D00000205B680130002BFBD162B67047002020
:1006E00070471846F9E700BFD40CFF1FF0B472B68C
:1006F0001A491B4E012311F8014B194F9A00240788
:1007000042F0010505D556F8324064B156F835205F
:10071000BAB10133052BEED162B6124B00221A702A
:10072000F0BC00F01BBD0F4C0F4D217847F8325044
:1007300007EB431308304A1E5860227062B6F0BCC3
:1007400070470849094B0A7847F8353007EBC5036D
:100750000830013A58600A7062B6F0E700200000E5
:100760000000FF1FFD0CFF1F88004000C800400074
:10077000431E032B1DD81B4A400140F0100030B42B
:10078000104472B6184CE25C032A1BD8DFE802F072
:100790000212151703220D88E25410F0080F14BF3F
:1007A000C823882343EA054308310360416062B6E9
:1007B00030BC704708300222EDE70522EBE7083035
:1007C0000422E8E7094A52F8230038B1084A52F8EF
:1007D0002300416042F8231062B6E9E742F8231093
:1007E000034AF7E70000FF1F0C0DFF1FD40CFF1F8B
:1007F000E40CFF1F2DE9F04FDFF804A3DFF804B38A
:1008000087B044E0A94F4FEA930807EBC809013EBF
:10081000D9F8042003F00803F6B2A2F1080003F0AF
:10082000FF04002B40F0FE8057F838301B0C99B2C3
:1008300022F8081C002B00F0EC809D4B22F8064C9F
:1008400042F8044C53F82620002A00F02B82994DE0
:1008500055F826305860984C45F8260034F8163084
:10086000194424F8161000F059FC002800F01382F7
:10087000924A934B19F0080F00F1080018BF134675
:10088000C9F8040047F8383008238AF800309AF88D
:100890000040E4B260071AD58A4B1B78A3B18A499D
:1008A0000A7802F0FF0322B1013BDBB20B7003B9FF
:1008B00000BE86490A7802F0FF032AB1013BDBB291
:1008C0000B70002B00F0BD8104238AF8003004F087
:1008D000080303F0FF02002B00F0C8809BF80030F3
:1008E000DBB21E098ED19C08704F57F8342007EBFD
:1008F000C401C2F38302013A49680C2A00F28580E0
:10090000DFE802F07979838383838383428383835F
:10091000070008686E4B6F4D0193684B4A686E4E36
:1009200047F8343081B240F28164694B6A602860D4
:1009300000220120A1421A603A61BA61307000F2CF
:10094000E380B1F5D06F80F02782B1F5817F00F0B0
:10095000E08100F2C381802900F03682822940F0D4
:10096000DE81A9885D4B01F07F01042900F2D88166
:100970005B4C89000B44227062701A78930740F137
:1009800022832070022023E2514B01931A683AB36C
:10099000544B514E5449188834780D784028864677
:1009A00045F0020828BF4FF0400E002C84F00104EF
:1009B0003470CEEB00000CBF8824C82407EBC806B7
:1009C00080B285F0010544EA0E447260188047F851
:1009D000384072440D70002800F0B780019B1A6007
:1009E0003C4B1A88B2F5A06F0FD100219A7859704C
:1009F0003E4B1A7009E0374A108842F221029042B9
:100A000000F0A8802D4A47F83420394A012313709A
:100A10003AE72A4A2A4B19F0080F18BF134647F83D
:100A2000383031E700F09AFB324A334952F8263029
:100A3000002B00F03B8158688C5D42F8260003F1E2
:100A40000802C9F80420032C05D8DFE804F02C02C2
:100A5000292602228A551A8819F0080F0CBF88230C
:100A6000C82343EA024347F838300DE7E00700F1B6
:100A7000EB80210600F12881A20706D51F4A2049F4
:100A800013780220DBB213700870E30602D51C4B0A
:100A900010221A7007B0BDE8F08F04228A55DAE7F9
:100AA00005228A55D7E703228A55D4E70000FF1FA5
:100AB000800CFF1F2C0CFF1F4010FF1FC8004000C0
:100AC00088004000080DFF1F910CFF1F100DFF1F35
:100AD000280CFF1FF40CFF1F900CFF1FC0200740C5
:100AE000000DFF1F3C0CFF1FFC0CFF1F9820074050
:100AF00094200740D40CFF1F0C0DFF1F88200740D7
:100B0000802007409020074042F22104A14200F0DB
:100B1000948043D8B1F5086F00F0A881B1F5106F4B
:100B200040F0FD80B84AB94CA978117004F18005F5
:100B300003E00834AC4200F09E81236A1906F8D520
:100B4000606A083800F00AFBF3E7BEF1400F18BFF7
:100B5000002243E7AE4ACD1D11F8013B02F8013FE8
:100B6000A942F9D1AB4A1268862A00F01181AA493C
:100B7000AA4E0A78307882F00105002842F002027D
:100B80000D700CBF8821C82147F8321007EBC20254
:100B900080F0010000213070516033E742F22124DF
:100BA000A14240F0FE81DFF8BCC29D4B9D49AC786C
:100BB000DCF800501D6081460C70002002908046D9
:100BC0008446044694490D7845F0020E07EBCE03A7
:100BD000B9F1000F5C600CBF8824C82444EA080304
:100BE00085F0010447F83E3032700C70DFF81CE2EB
:100BF0008A4BDFF82482002840F09880BCF1400F37
:100C00001BD144F0020407EBC403029FDFF8FCE1B0
:100C10005F60002A40F09F80020442F0880207448F
:100C20004EF8342086F800900D703B46402804D1E1
:100C300000207D4A019910800B607C4A01231370CB
:100C4000E3E600F043FB3FE6704B784872491A61D7
:100C50004FF0020E80F800E0754F0A707549196078
:100C60009960754E754D764C9A610D213970FF2152
:100C70003170DFF8F4E129702270724D724A8EF8FB
:100C800000109F27012406F8047C5D600470DA6080
:100C900007B0BDE8F08F6D4A47F83800137801338C
:100CA0001370F1E543F82600694DD4E58B5D032B05
:100CB00067D801A252F823F08908000089080000D3
:100CC0000D0D0000070D000059495C4B80220D20DE
:100CD00008701A70A2077FF5D8AECFE640F2023254
:100CE000914240F05681A98801F07F01042916D86D
:100CF0006A88A2B94E4C89000C448146217841F0A3
:100D00000201217059E701238B55BDE500238B5566
:100D1000BAE5A98801F07F01042940F24781444BDC
:100D20000F221A70414A012313706EE640287FF6A5
:100D300068AF44F002040EEBC401029E4E60AAB1FB
:100D4000444A83F800903346403888F800504033D6
:100D50004EF834206DE70204029B86F8009042F0C2
:100D6000C8020D7003444EF834205FE783F800900A
:100D7000029B304A88F80050403840334EF8342007
:100D800057E719F0080F0CBF022303238B557BE5AF
:100D9000314A0F211170EAE6304A5468002CBED067
:100DA0006888B5F804E003E00C325468002CB6D033
:100DB00013888342F8D153887345F5D1000A03287C
:100DC0000CBF2078108903E0254C0220227062704D
:100DD000EA88824280F00C810F490D78402A45F064
:100DE000020E944607EBCE0028BF4FF0400C04EBF8
:100DF0000C0344600293CCEB02004FEA0C484FF026
:100E000001090022C824E9E6080DFF1F0000FF1FAA
:100E10004710FF1F4810FF1FFC0CFF1F900CFF1F07
:100E20005010FF1F200DFF1F3C0CFF1F9420074098
:100E3000C0200740880040008820074080200740ED
:100E400098200740400CFF1F940CFF1FFD0CFF1F54
:100E50002C0CFF1FC8004000910CFF1F0420000055
:100E6000000DFF1F240CFF1F8C200740684A694CAF
:100E700012782270ACE76849684B694A0291694967
:100E8000694C6A4D039405964FF0000988461C464C
:100E900016460495206828B1456800F05FF9284699
:100EA000002DF9D100232360049B30681A460023EB
:100EB00042F8293028B1456800F050F92846002D45
:100EC000F9D100223260029A98F8003011460022CF
:100ED00041F8042B039A0291023B4FF0000122F8E3
:100EE0001910032B07D8DFE803F0340234024FF067
:100EF000010388F8003009F10109B9F1040F04F188
:100F0000040406F1040608F10108C3D1484B059E0C
:100F1000DFF83091DFF8308100211970012518F8D1
:100F2000013B09F8043B1A0718D4AC0044F0020254
:100F300044F00304002347F8323047F834303D4B87
:100F4000994505F10105EAD196F8009089F0010272
:100F500033E64FF0000388F80030CCE700F0DEF80D
:100F6000AC0007EB451300F10802002837D05A60A7
:100F7000314B47F8343000F0D1F844F0010307EB6F
:100F8000C30200F1080100B351602C4A47F8332036
:100F9000CCE7B1F5A06F7FF4C2AE00224FF001099B
:100FA0000BE642F221329142F7D0B8E66A88002A75
:100FB0007FF4B5AE224C89000C448146217821F0A3
:100FC00002012170F9E5022002E7194B44F0010209
:100FD0001B7847F83200164A01331370A6E7144B0A
:100FE000134A1B78AC00013347F834001370C2E792
:100FF0004028844628BF4FF0400C04EB0C03CCEB98
:1010000000004FEA0C48029300224FF00109D9E595
:10101000080DFF1F000DFF1FE40CFF1F800CFF1FBA
:10102000D40CFF1F0C0DFF1F4010FF1F2C0CFF1FC7
:10103000FD0CFF1FD420074088004000C80040007E
:10104000C0200740C4200740002000002DE9F041E7
:10105000274C00F0BFFD002204F1880023461A60EF
:101060005A60083383424FF00001F8D12148224AE8
:101070000368DFF89CE0214E214D224FDFF894C039
:10108000DFF8948043F480230360136843F04073D7
:10109000136003238EF80030A023337002F5C922B9
:1010A000C4F3072300F528302B708030C4F30743C6
:1010B00010323B70240EFF230470134D8CF8003067
:1010C000124888F800301370012306F8AC3C4FF446
:1010D00000140EF8441C7026102107F82C3C2E70CA
:1010E000046082F8F810AEF1440EBDE8F08100BF54
:1010F0000000FF1F3480044000D80040402107401A
:101100009C200740B020074035E400E004E100E007
:1011100044210740802007408820074072B60D48D0
:101120000268B2FA82F30B2B10DC4FF00041D94079
:1011300022EA0102026062B6074803EBC303DB0048
:10114000C2180021C15010465160704762B600209D
:10115000704700BF3007FF1FD003FF1F0D4B0E4A23
:10116000C31AA2FB03231B090B2B0CD80B4A1278C2
:1011700052B972B60A484FF00041026821FA03F3EF
:101180001A43026062B67047064A1278002AF0D00D
:10119000FFF7ACBAD003FF1F398EE338FD0CFF1FF9
:1011A0003007FF1F080DFF1F044B054A1B6890887E
:1011B0001BB11A885B88D31A184470471C0DFF1F97
:1011C0004010FF1F2DE9F04FDFF8F89083B00122A7
:1011D00089F80020019169B3DFF8EC80354F019E5A
:1011E0008346D8F80000B0B3334D4488C4F14001C1
:1011F000B14228BF314604EB010E00221FFA8EFED9
:101200002A70761AA0F802E000F1080251B1013C00
:10121000224459441BF8014B02F8014F8B45F9D188
:10122000B0F802E0BEF13F0F0BD8244A052111703F
:10123000002ED6D10198002389F8003003B0BDE814
:10124000F08F4022028001460420FFF791FA00222D
:10125000C8F80020E9E73A7822B3194C164D4FF050
:10126000010A07E0013C16D02A78A2B900F05AF82A
:101270003A78BAB10420FFF723FA0728F2D889F8A0
:1012800000A0FFF74BFFC8F800000028ADD10D4BC0
:10129000013C1870E8D101234FF0FF302B7003B0F0
:1012A000BDE8F08F00234FF0FF3089F8003003B025
:1012B000BDE8F08F080DFF1F180DFF1F100DFF1F59
:1012C00021480100110DFF1F140DFF1F38B50E4BF3
:1012D0001B7873B90D4C216861B103F0FF054B8891
:1012E0000B800420FFF744FA256038BD084B01222B
:1012F0001A7038BDFFF712FF0028F7D00146BDE88D
:1013000038400420FFF734BA110DFF1F140DFF1FE2
:10131000100DFF1F08B5FFF7A9F8FFF7A9F800F0B7
:1013200001F8FAE738B52C4C237803B138BD012316
:101330002370FFF739FF002842D100F029F9002877
:101340003BD100F0BBF9002834D100F04DFA70BB5E
:1013500000F0C6FA40BB00F03FFB10BB00F0B8FB4A
:10136000E0B900232370EFF30583002BDED1EFF308
:10137000108172B6194B186828B3194C227812BB29
:1013800045691D60012323700DB3AA6101B962B6DE
:1013900000254577836898472570C7E700F060FD12
:1013A000DFE700F05BFDD9E700F056FDD3E700F082
:1013B00051FDCDE700F04CFDC7E700F047FDC0E769
:1013C00000F050FDB9E70029B0D162B638BD054B39
:1013D0001D600029DCD1DAE7210DFF1F3410FF1F4B
:1013E0003810FF1F3010FF1F30B42948294A2A4BFC
:1013F0002A4D6024E121047011701B78284C082BC1
:1014000030D00A2B2748284937D00C2B0CBF352267
:101410005D2212232A60236002600B60234B244963
:101420001B78244ABBB101230B601360224B234974
:101430001B78234A012B26D9042B0FD9082B1ED940
:10144000102B94BF862387230B6013601D4B012252
:101450001A7030BC70470B601360E7E784230B60A1
:101460001360F3E700F58E200F4908302122132383
:101470002A60236002600B60D0E73922F7E78523FA
:101480000B601360E2E780230B601360DEE700BFB0
:1014900000400740014007403407FF1F08B00340E9
:1014A0000CB0034008B00B400CB00B40230DFF1FE5
:1014B00020B0034020B00B403507FF1F24B003408D
:1014C00024B00B40220DFF1F08B5104C08E0236824
:1014D00059050DD423681A050FD42368DB0411D4F1
:1014E00023685803F3D5FFF785F923685905F1D52B
:1014F00000F05EF823681A05EFD500F0EFF82368D6
:10150000DB04EDD500F080F9EAE700BF3480044049
:1015100008B5FFF7D9FF00BF014B10221A807047B2
:1015200000200540704700BF084A1378802B01D087
:10153000002070470649074B0748086000211970D2
:101540001378802BFCD00120704700BF03E00740D8
:101550004480044001E0074000002822094A137833
:10156000012B01D00020704703F1804303F5FC23D9
:10157000602119701378802BFCD1034B034A1A6049
:101580000120704703E00740448004400000060249
:10159000054A064B10781B78C0B2DBB2984238BFC0
:1015A0004030C01A704700BF280DFF1F290DFF1FD4
:1015B000F0B4384B1A7912F0300F2CD072B6997DF6
:1015C00001F0FF0200293DD062B6334F334938782D
:1015D0000D78334E1C46C0B2EDB2431C402BE1796E
:1015E00028BF0023AB4202F1FF32C9B21CBFF15445
:1015F000184612F0FF02F0D12A4B1B68C2B23A70B3
:101600004BB1A84236BFC5F14005401B4019272801
:10161000C4BF01221A701F49CA78D2B2150616D467
:1016200052060DD51B4B1B795B0609D51E4B1F4976
:101630001B6800220A7003B11A70164B3C22DA7044
:10164000F0BC70474022D9795A7462B6E3E70B794F
:101650001C06E5D5164B174E1C783378E4B2DBB286
:101660009C420ED0144D01E0A3420AD00133402B1E
:1016700028BF00230879E85CC0B2C871087D07283C
:10168000F2D9DBB2034933700B79180644BF7C23CF
:10169000CB70C5E700A00640280DFF1F290DFF1FD6
:1016A0006C0DFF1F240DFF1FB00DFF1FAC0DFF1FA2
:1016B000B40DFF1FAD0DFF1F2C0DFF1F054A064B7C
:1016C00010781B78C0B2DBB2984238BF4030C01AE5
:1016D000704700BF280EFF1FBD0DFF1FF0B4384B31
:1016E0001A7912F0300F2CD072B6997D01F0FF02FA
:1016F00000293DD062B6334F334938780D78334EE8
:101700001C46C0B2EDB2431C402BE17928BF002338
:10171000AB4202F1FF32C9B21CBFF154184612F0BD
:10172000FF02F0D12A4B1B68C2B23A704BB1A842FB
:1017300036BFC5F14005401B40192728C4BF012210
:101740001A701F49CA78D2B2150616D452060DD5A2
:101750001B4B1B795B0609D51E4B1F491B680022DA
:101760000A7003B11A70164B3C22DA70F0BC704755
:101770004022D9795A7462B6E3E70B791C06E5D5A5
:10178000164B174E1C783378E4B2DBB29C420ED075
:10179000144D01E0A3420AD00133282B28BF0023B7
:1017A0000879E85CC0B2C871087D0728F2D9DBB2BD
:1017B000034933700B79180644BF7C23CB70C5E70F
:1017C00000B00640280EFF1FBD0DFF1FE80DFF1FD4
:1017D000B80DFF1F2C0EFF1FBC0DFF1F300EFF1F8B
:1017E000290EFF1FC00DFF1F054A064B10781B78FE
:1017F000C0B2DBB2984238BF4030C01A704700BF59
:10180000380EFF1F390EFF1F30B42B4B1A79940688
:101810001FD52A48DA790378294901333F2B097803
:10182000C8BF00238B42D2B203D0264CD9B2E254B7
:101830000170254A116861B1244A1278D2B29342EC
:1018400036BFC2F140029B1A9B18272BC4BF01234D
:101850000B70194AD378DBB2180611D45A060DD58D
:10186000154B1B795B0609D5194B1A491B680022D9
:101870000A7003B11A70104B2C22DA7030BC70471A
:1018800011790906EAD5144910480C780178C9B2D3
:101890008C420DD04A1C272A84BF00210A460F4DD6
:1018A000054C98BFD1B2AA5CD2B2E2710170D5E703
:1018B0006C21D170D2E700BF00C00640380EFF1F78
:1018C000390EFF1F640EFF1F340EFF1FA50EFF1FF2
:1018D000A80EFF1FA40EFF1FAC0EFF1F3C0EFF1F24
:1018E000054A064B10781B78C0B2DBB2984238BF6D
:1018F0004030C01A704700BFB40EFF1FB50EFF1F67
:1019000030B42B4B1A7994061FD52A48DA7903781C
:10191000294901333F2B0978C8BF00238B42D2B23B
:1019200003D0264CD9B2E2540170254A116861B146
:10193000244A1278D2B2934236BFC2F140029B1AB7
:101940009B18272BC4BF01230B70194AD378DBB235
:10195000180611D45A060DD5154B1B795B0609D50F
:10196000194B1A491B6800220A7003B11A70104BF8
:101970002C22DA7030BC704711790906EAD5144977
:1019800010480C780178C9B28C420DD04A1C272A25
:1019900084BF00210A460F4D054C98BFD1B2AA5C06
:1019A000D2B2E2710170D5E76C21D170D2E700BFED
:1019B00000D00640B40EFF1FB50EFF1FE00EFF1F44
:1019C000B00EFF1F210FFF1F240FFF1F200FFF1F4F
:1019D000280FFF1FB80EFF1F054A064B10781B7813
:1019E000C0B2DBB2984238BF4030C01A704700BF67
:1019F000300FFF1F310FFF1F30B42B4B1A799406A5
:101A00001FD52A48DA790378294901333F2B097811
:101A1000C8BF00238B42D2B203D0264CD9B2E254C5
:101A20000170254A116861B1244A1278D2B29342FA
:101A300036BFC2F140029B1A9B18272BC4BF01235B
:101A40000B70194AD378DBB2180611D45A060DD59B
:101A5000154B1B795B0609D5194B1A491B680022E7
:101A60000A7003B11A70104B2C22DA7030BC704728
:101A700011790906EAD5144910480C780178C9B2E1
:101A80008C420DD04A1C272A84BF00210A460F4DE4
:101A9000054C98BFD1B2AA5CD2B2E2710170D5E711
:101AA0006C21D170D2E700BF00A00E40300FFF1FA5
:101AB000310FFF1F5C0FFF1F2C0FFF1F9D0FFF1F1C
:101AC000A00FFF1F9C0FFF1FA40FFF1F340FFF1F4E
:101AD000054A064B10781B78C0B2DBB2984238BF7B
:101AE0004030C01A704700BFAC0FFF1FAD0FFF1F83
:101AF00030B42C4B5A6894021FD52B48DA6803780F
:101B00002A4901333F2B0978C8BF00238B4204D0F8
:101B1000274CD2B2D9B2E2540170264A116861B1A1
:101B2000254A1278D2B2934236BFC2F140029B1AC4
:101B30009B18272BC4BF01230B701A4A9368180205
:101B400002D55268110211D45A020DD5154B5B68AB
:101B50005B0209D5194B1A491B6800220A7003B1B0
:101B60001A70184B00221A6030BC7047164A12498E
:101B700010780A78D2B290420DD00132272A84BF61
:101B800000200246114D074C98BFD0B2AA5CD2B2D9
:101B9000E2600870D8E70E480A4A00240121046078
:101BA0001160D1E700400C40AC0FFF1FAD0FFF1FCD
:101BB000D80FFF1FA80FFF1F1910FF1F1C10FF1FBA
:101BC0001810FF1F580188432010FF1FB00FFF1F80
:101BD0005C01884310B584B072B6FFF7A5FC184AC3
:101BE000184B19491160702280211A701A46197019
:101BF00013781B06FCD5154B1C68FFF7AFFC62B6CB
:101C0000134B9C429CBF04EB840464002046114C9F
:101C100001A90A2200F028F901A92046002311F8A1
:101C2000012B01333AB10A2B20F8022FF7D11623EA
:101C3000237004B010BD5B00DBB2237004B010BD94
:101C40000400024000000240000007410C00024076
:101C50007F969800C407FF1F10B4EFF3108272B68E
:101C6000437F33B9017F012908D0032910D0012314
:101C7000437702B962B65DF8044B7047114C216896
:101C8000A1B1114943610B68836108605861EEE7B7
:101C90000E4C216881B10E4943610B688361086075
:101CA00058610C4B4FF080511960E0E7064B4161E1
:101CB000816120601860DAE7054B41618161206035
:101CC0001860EEE73410FF1F3010FF1F2410FF1FB5
:101CD0002810FF1F04ED00E010B4047F4160022CC7
:101CE000C26003D05DF8044BFFF7B6BF83685DF8B0
:101CF000044B184770B5EFF3108272B60C4C206895
:101D000080B10C4E00254369236073B19D6102B917
:101D100062B6457783689847EFF3108272B6206801
:101D20000028F0D102B962B670BD3360EFE700BFA2
:101D30002410FF1F2810FF1FFFF7DCBF184A30B424
:101D40001468002C27D0036821688B420ED2CB1A6E
:101D500000218460C1602360E0601060022303758D
:101D600030BC704711688B42144608D3A2685B1AD6
:101D70000360002AF6D18260C460A060EEE7D268FA
:101D8000C2608460E060C568CB1A0222A86023604C
:101D9000027530BC70478460C4601060DEE700BF2D
:101DA0002C10FF1FF8B5224E34682CB32368002B8B
:101DB0003AD1204F1D4604E03468ECB12368002B73
:101DC00032D1A36803B1DD602069336003682575F3
:101DD0001B68BB4221D1037F4560022BC46020D029
:101DE000FFF73AFF6368002BE6D023602046FFF739
:101DF000A5FF3468002CE1D1EFF3108372B60E4AD0
:101E000000211068116003B962B628B18468FFF739
:101E100095FF20460028F9D1F8BD224600219847B9
:101E2000E0E783689847DDE7013B2360E4E700BF14
:101E30002C10FF1FD91C00003C10FF1F024A136822
:101E400001331360FFF7AEBF240CFF1F704700BFC4
:101E5000704700BF704700BF704700BF704700BFAA
:101E6000704700BF704700BFF0B44D1E2E460024DF
:101E700000E00134B0FBF2F302FB1300092800F18B
:101E800030078ABF3730F8B2C0B206F8010F1846E3
:101E9000002BEED10A1953704CB1107815F8016F70
:101EA00028700133E01A834202F80169F5DB084625
:101EB000F0BC704770B50F4E0F4D761BB61018BFB3
:101EC000002405D0013455F8043B9847A642F9D1C7
:101ED0000A4E0B4D761B00F0C1F8B61018BF002457
:101EE00006D0013455F8043B9847A642F9D170BD9D
:101EF00070BD00BF68200000682000007020000056
:101F000068200000024B13B1024800F005B870478A
:101F100000000000251F0000002301461A46184655
:101F200000F014B838B5074D074C2C1BA41005D091
:101F3000013C55F8043D9847002CF9D1BDE83840E4
:101F400000F096B800000000000000002DE9F04706
:101F5000254C2568D5F8484106468846924699465C
:101F6000C4B360681F2817DC431C76B104EB8005FE
:101F70000122C5F888A0D4F8881182401143022EAE
:101F8000C4F88811C5F808911ED00230636044F887
:101F900020800020BDE8F087144B03B34FF4C870D5
:101FA000AFF300800446D0B1D5F84831002780E86F
:101FB0008800C5F8484138460123C4F88871C4F840
:101FC0008C71002EE1D0D1E7D4F88C110A43C4F80B
:101FD0008C21DAE705F5A674C5F84841C1E74FF052
:101FE000FF30BDE8F08700BF58200000000000006F
:101FF000546573742050726F6772616D0000000049
:1020000000151915000100003807FF1F120000001D
:10201000000200006407FF1F4300000000030000EF
:10202000C007FF1F00000000010309044C07FF1F49
:102030000000000002030904A807FF1F00000000C1
:1020400003030904C407FF1F000000000000000094
:102050000000000000000000E007FF1FF8B500BF0F
:10206000F8BC08BC9E467047051F00003504000000
:04207000F8B500BF00
:10207400FFFFFFFF0A0400001201010102000040FB
:10208400C016830400020102030100001803540077
:10209400650065006E0073007900640075006900D6
:1020A4006E006F0009024300020100C032090400FF
:1020B40000010202010005240010010524010101B0
:1020C40004240206052406000107058203100040CB
:1020D40009040100020A0000000705030240000091
:1020E4000705840240000000160355005300420017
:1020F4002000530065007200690061006C0000005C
:10210400040309040C0300000000000000000000A8
:1021140000000000000000000000000000000000BB
:1021240000000000CC0AFF1F340BFF1F9C0BFF1F95
:10213400000000000000000000000000000000009B
:10214400000000000000000000000000000000008B
:10215400000000000000000000000000000000007B
:10216400000000000000000000000000000000006B
:10217400000000000000000000000000000000005B
:10218400000000000000000000000000000000004B
:10219400000000000000000000000000000000003B
:1021A400000000000000000000000000000000002B
:1021B400000000000000000000000000000000001B
:1021C400000000000000000001000000000000000A
:1021D4000E33CDAB34126DE6ECDE05000B000000CF
:1021E40000000000000000000000000000000000EB
:1021F40000000000000000000000000000000000DB
:1022040000000000000000000000000000000000CA
:1022140000000000000000000000000000000000BA
:00000001FF
